{
  "contractName": "DnsOnBlock",
  "abi": [
    {
      "inputs": [],
      "stateMutability": "nonpayable",
      "type": "constructor"
    },
    {
      "inputs": [
        {
          "internalType": "string",
          "name": "",
          "type": "string"
        }
      ],
      "name": "dns_record",
      "outputs": [
        {
          "internalType": "string",
          "name": "",
          "type": "string"
        }
      ],
      "stateMutability": "view",
      "type": "function",
      "constant": true
    },
    {
      "inputs": [
        {
          "internalType": "address",
          "name": "",
          "type": "address"
        },
        {
          "internalType": "uint256",
          "name": "",
          "type": "uint256"
        }
      ],
      "name": "property",
      "outputs": [
        {
          "internalType": "string",
          "name": "",
          "type": "string"
        }
      ],
      "stateMutability": "view",
      "type": "function",
      "constant": true
    },
    {
      "inputs": [
        {
          "internalType": "string",
          "name": "_dn",
          "type": "string"
        }
      ],
      "name": "get_ip",
      "outputs": [
        {
          "internalType": "string",
          "name": "",
          "type": "string"
        }
      ],
      "stateMutability": "view",
      "type": "function",
      "constant": true
    },
    {
      "inputs": [
        {
          "internalType": "address",
          "name": "_addr",
          "type": "address"
        }
      ],
      "name": "get_records",
      "outputs": [
        {
          "internalType": "string[]",
          "name": "",
          "type": "string[]"
        }
      ],
      "stateMutability": "view",
      "type": "function",
      "constant": true
    },
    {
      "inputs": [
        {
          "internalType": "string",
          "name": "_ipv4",
          "type": "string"
        },
        {
          "internalType": "string",
          "name": "_dn",
          "type": "string"
        },
        {
          "internalType": "address",
          "name": "_addr",
          "type": "address"
        }
      ],
      "name": "set_record",
      "outputs": [],
      "stateMutability": "nonpayable",
      "type": "function"
    },
    {
      "inputs": [
        {
          "internalType": "string",
          "name": "_dn",
          "type": "string"
        },
        {
          "internalType": "string",
          "name": "_newip",
          "type": "string"
        },
        {
          "internalType": "address",
          "name": "_owner",
          "type": "address"
        }
      ],
      "name": "update_ip",
      "outputs": [],
      "stateMutability": "nonpayable",
      "type": "function"
    },
    {
      "inputs": [
        {
          "internalType": "address",
          "name": "_owner",
          "type": "address"
        },
        {
          "internalType": "address",
          "name": "_newowner",
          "type": "address"
        }
      ],
      "name": "update_owner",
      "outputs": [],
      "stateMutability": "nonpayable",
      "type": "function"
    },
    {
      "inputs": [
        {
          "internalType": "address",
          "name": "_owner",
          "type": "address"
        },
        {
          "internalType": "string",
          "name": "_dn",
          "type": "string"
        }
      ],
      "name": "delete_dn",
      "outputs": [],
      "stateMutability": "nonpayable",
      "type": "function"
    }
  ],
  "bytecode": "0x60806040523480156200001157600080fd5b506000600367ffffffffffffffff81111562000032576200003162000627565b5b6040519080825280602002602001820160405280156200006757816020015b6060815260200190600190039081620000515790505b5090506000600367ffffffffffffffff8111156200008a576200008962000627565b5b604051908082528060200260200182016040528015620000bf57816020015b6060815260200190600190039081620000a95790505b5090506040518060400160405280600c81526020017f64656661756c74312e7066650000000000000000000000000000000000000000815250826000815181106200010f576200010e62000656565b5b60200260200101819052506040518060400160405280600c81526020017f64656661756c74322e70666500000000000000000000000000000000000000008152508260018151811062000167576200016662000656565b5b60200260200101819052506040518060400160405280600c81526020017f64656661756c74332e706665000000000000000000000000000000000000000081525082600281518110620001bf57620001be62000656565b5b60200260200101819052506040518060400160405280600d81526020017f3137322e3137322e3137322e31000000000000000000000000000000000000008152508160008151811062000217576200021662000656565b5b60200260200101819052506040518060400160405280600d81526020017f3137322e3137322e3137322e3200000000000000000000000000000000000000815250816001815181106200026f576200026e62000656565b5b60200260200101819052506040518060400160405280600d81526020017f3137322e3137322e3137322e330000000000000000000000000000000000000081525081600281518110620002c757620002c662000656565b5b602002602001018190525080600081518110620002e957620002e862000656565b5b60200260200101516001836000815181106200030a576200030962000656565b5b602002602001015160405162000321919062000708565b9081526020016040518091039020908051906020019062000344929190620004a2565b50806001815181106200035c576200035b62000656565b5b60200260200101516001836001815181106200037d576200037c62000656565b5b602002602001015160405162000394919062000708565b90815260200160405180910390209080519060200190620003b7929190620004a2565b5080600281518110620003cf57620003ce62000656565b5b6020026020010151600183600281518110620003f057620003ef62000656565b5b602002602001015160405162000407919062000708565b908152602001604051809103902090805190602001906200042a929190620004a2565b50600073c96502936c79ff1d61e00a8cbbd0352d732a31a79050826000808373ffffffffffffffffffffffffffffffffffffffff1673ffffffffffffffffffffffffffffffffffffffff16815260200190815260200160002090805190602001906200049892919062000533565b5050505062000785565b828054620004b09062000750565b90600052602060002090601f016020900481019282620004d4576000855562000520565b82601f10620004ef57805160ff191683800117855562000520565b8280016001018555821562000520579182015b828111156200051f57825182559160200191906001019062000502565b5b5090506200052f91906200059a565b5090565b82805482825590600052602060002090810192821562000587579160200282015b828111156200058657825182908051906020019062000575929190620004a2565b509160200191906001019062000554565b5b509050620005969190620005b9565b5090565b5b80821115620005b55760008160009055506001016200059b565b5090565b5b80821115620005dd5760008181620005d39190620005e1565b50600101620005ba565b5090565b508054620005ef9062000750565b6000825580601f1062000603575062000624565b601f0160209004906000526020600020908101906200062391906200059a565b5b50565b7f4e487b7100000000000000000000000000000000000000000000000000000000600052604160045260246000fd5b7f4e487b7100000000000000000000000000000000000000000000000000000000600052603260045260246000fd5b600081519050919050565b600081905092915050565b60005b83811015620006bb5780820151818401526020810190506200069e565b83811115620006cb576000848401525b50505050565b6000620006de8262000685565b620006ea818562000690565b9350620006fc8185602086016200069b565b80840191505092915050565b6000620007168284620006d1565b915081905092915050565b7f4e487b7100000000000000000000000000000000000000000000000000000000600052602260045260246000fd5b600060028204905060018216806200076957607f821691505b6020821081036200077f576200077e62000721565b5b50919050565b611eda80620007956000396000f3fe608060405234801561001057600080fd5b50600436106100885760003560e01c8063d9cd35171161005b578063d9cd351714610111578063dc057e561461012d578063f07aaa8b1461015d578063f2abe1791461018d57610088565b80636eb4e00e1461008d578063a3eb9c11146100bd578063b7539216146100d9578063cbc0b3fb146100f5575b600080fd5b6100a760048036038101906100a29190611307565b6101bd565b6040516100b491906113e0565b60405180910390f35b6100d760048036038101906100d29190611537565b610276565b005b6100f360048036038101906100ee91906115c2565b6104a6565b005b61010f600480360381019061010a9190611537565b6105ed565b005b61012b60048036038101906101269190611602565b610792565b005b6101476004803603810190610142919061165e565b6109da565b6040516101549190611797565b60405180910390f35b610177600480360381019061017291906117b9565b610b75565b60405161018491906113e0565b60405180910390f35b6101a760048036038101906101a291906117b9565b610d24565b6040516101b491906113e0565b60405180910390f35b600060205281600052604060002081815481106101d957600080fd5b906000526020600020016000915091505080546101f590611831565b80601f016020809104026020016040519081016040528092919081815260200182805461022190611831565b801561026e5780601f106102435761010080835404028352916020019161026e565b820191906000526020600020905b81548152906001019060200180831161025157829003601f168201915b505050505081565b610335600183604051610289919061189e565b908152602001604051809103902080546102a290611831565b80601f01602080910402602001604051908101604052809291908181526020018280546102ce90611831565b801561031b5780601f106102f05761010080835404028352916020019161031b565b820191906000526020600020905b8154815290600101906020018083116102fe57829003601f168201915b505050505060405180602001604052806000815250610dda565b610374576040517f08c379a000000000000000000000000000000000000000000000000000000000815260040161036b90611901565b60405180910390fd5b73c96502936c79ff1d61e00a8cbbd0352d732a31a773ffffffffffffffffffffffffffffffffffffffff163373ffffffffffffffffffffffffffffffffffffffff16146103f6576040517f08c379a00000000000000000000000000000000000000000000000000000000081526004016103ed90611993565b60405180910390fd5b82600183604051610407919061189e565b90815260200160405180910390209080519060200190610428929190610fb5565b506000808273ffffffffffffffffffffffffffffffffffffffff1673ffffffffffffffffffffffffffffffffffffffff168152602001908152602001600020829080600181540180825580915050600190039060005260206000200160009091909190915090805190602001906104a0929190610fb5565b50505050565b8173ffffffffffffffffffffffffffffffffffffffff163373ffffffffffffffffffffffffffffffffffffffff1614610514576040517f08c379a000000000000000000000000000000000000000000000000000000000815260040161050b90611a4b565b60405180910390fd5b6000808373ffffffffffffffffffffffffffffffffffffffff1673ffffffffffffffffffffffffffffffffffffffff1681526020019081526020016000206000808373ffffffffffffffffffffffffffffffffffffffff1673ffffffffffffffffffffffffffffffffffffffff16815260200190815260200160002090805461059e92919061103b565b506000808373ffffffffffffffffffffffffffffffffffffffff1673ffffffffffffffffffffffffffffffffffffffff16815260200190815260200160002060006105e991906110a3565b5050565b6106ac600184604051610600919061189e565b9081526020016040518091039020805461061990611831565b80601f016020809104026020016040519081016040528092919081815260200182805461064590611831565b80156106925780601f1061066757610100808354040283529160200191610692565b820191906000526020600020905b81548152906001019060200180831161067557829003601f168201915b505050505060405180602001604052806000815250610dda565b156106ec576040517f08c379a00000000000000000000000000000000000000000000000000000000081526004016106e390611add565b60405180910390fd5b8073ffffffffffffffffffffffffffffffffffffffff163373ffffffffffffffffffffffffffffffffffffffff161461075a576040517f08c379a000000000000000000000000000000000000000000000000000000000815260040161075190611b95565b60405180910390fd5b8160018460405161076b919061189e565b9081526020016040518091039020908051906020019061078c929190610fb5565b50505050565b8173ffffffffffffffffffffffffffffffffffffffff163373ffffffffffffffffffffffffffffffffffffffff1614610800576040517f08c379a00000000000000000000000000000000000000000000000000000000081526004016107f790611c4d565b60405180910390fd5b600080600190505b6000808573ffffffffffffffffffffffffffffffffffffffff1673ffffffffffffffffffffffffffffffffffffffff16815260200190815260200160002080549050821080156108555750805b156109aa576109466000808673ffffffffffffffffffffffffffffffffffffffff1673ffffffffffffffffffffffffffffffffffffffff16815260200190815260200160002083815481106108ad576108ac611c6d565b5b9060005260206000200180546108c290611831565b80601f01602080910402602001604051908101604052809291908181526020018280546108ee90611831565b801561093b5780601f106109105761010080835404028352916020019161093b565b820191906000526020600020905b81548152906001019060200180831161091e57829003601f168201915b505050505084610dda565b15610997576109926000808673ffffffffffffffffffffffffffffffffffffffff1673ffffffffffffffffffffffffffffffffffffffff16815260200190815260200160002084610e33565b600090505b81806109a290611ccb565b925050610808565b6001836040516109ba919061189e565b908152602001604051809103902060006109d491906110c4565b50505050565b606060008060008473ffffffffffffffffffffffffffffffffffffffff1673ffffffffffffffffffffffffffffffffffffffff1681526020019081526020016000208054905003610a60576040517f08c379a0000000000000000000000000000000000000000000000000000000008152600401610a5790611d5f565b60405180910390fd5b6000808373ffffffffffffffffffffffffffffffffffffffff1673ffffffffffffffffffffffffffffffffffffffff168152602001908152602001600020805480602002602001604051908101604052809291908181526020016000905b82821015610b6a578382906000526020600020018054610add90611831565b80601f0160208091040260200160405190810160405280929190818152602001828054610b0990611831565b8015610b565780601f10610b2b57610100808354040283529160200191610b56565b820191906000526020600020905b815481529060010190602001808311610b3957829003601f168201915b505050505081526020019060010190610abe565b505050509050919050565b6060610c36600183604051610b8a919061189e565b90815260200160405180910390208054610ba390611831565b80601f0160208091040260200160405190810160405280929190818152602001828054610bcf90611831565b8015610c1c5780601f10610bf157610100808354040283529160200191610c1c565b820191906000526020600020905b815481529060010190602001808311610bff57829003601f168201915b505050505060405180602001604052806000815250610dda565b15610c76576040517f08c379a0000000000000000000000000000000000000000000000000000000008152600401610c6d90611dcb565b60405180910390fd5b600182604051610c86919061189e565b90815260200160405180910390208054610c9f90611831565b80601f0160208091040260200160405190810160405280929190818152602001828054610ccb90611831565b8015610d185780601f10610ced57610100808354040283529160200191610d18565b820191906000526020600020905b815481529060010190602001808311610cfb57829003601f168201915b50505050509050919050565b6001818051602081018201805184825260208301602085012081835280955050505050506000915090508054610d5990611831565b80601f0160208091040260200160405190810160405280929190818152602001828054610d8590611831565b8015610dd25780601f10610da757610100808354040283529160200191610dd2565b820191906000526020600020905b815481529060010190602001808311610db557829003601f168201915b505050505081565b600081604051602001610ded919061189e565b6040516020818303038152906040528051906020012083604051602001610e14919061189e565b6040516020818303038152906040528051906020012014905092915050565b6000805b60018480549050610e489190611deb565b811015610f80578180610f065750610f05848281548110610e6c57610e6b611c6d565b5b906000526020600020018054610e8190611831565b80601f0160208091040260200160405190810160405280929190818152602001828054610ead90611831565b8015610efa5780601f10610ecf57610100808354040283529160200191610efa565b820191906000526020600020905b815481529060010190602001808311610edd57829003601f168201915b505050505084610dda565b5b91508115610f6d5783600182610f1c9190611e1f565b81548110610f2d57610f2c611c6d565b5b90600052602060002001848281548110610f4a57610f49611c6d565b5b90600052602060002001908054610f6090611831565b610f6b929190611104565b505b8080610f7890611ccb565b915050610e37565b5082805480610f9257610f91611e75565b5b600190038181906000526020600020016000610fae91906110c4565b9055505050565b828054610fc190611831565b90600052602060002090601f016020900481019282610fe3576000855561102a565b82601f10610ffc57805160ff191683800117855561102a565b8280016001018555821561102a579182015b8281111561102957825182559160200191906001019061100e565b5b5090506110379190611191565b5090565b8280548282559060005260206000209081019282156110925760005260206000209182015b8281111561109157828290805461107690611831565b6110819291906111ae565b5091600101919060010190611060565b5b50905061109f919061123b565b5090565b50805460008255906000526020600020908101906110c1919061123b565b50565b5080546110d090611831565b6000825580601f106110e25750611101565b601f0160209004906000526020600020908101906111009190611191565b5b50565b82805461111090611831565b90600052602060002090601f0160209004810192826111325760008555611180565b82601f106111435780548555611180565b8280016001018555821561118057600052602060002091601f016020900482015b8281111561117f578254825591600101919060010190611164565b5b50905061118d9190611191565b5090565b5b808211156111aa576000816000905550600101611192565b5090565b8280546111ba90611831565b90600052602060002090601f0160209004810192826111dc576000855561122a565b82601f106111ed578054855561122a565b8280016001018555821561122a57600052602060002091601f016020900482015b8281111561122957825482559160010191906001019061120e565b5b5090506112379190611191565b5090565b5b8082111561125b576000818161125291906110c4565b5060010161123c565b5090565b6000604051905090565b600080fd5b600080fd5b600073ffffffffffffffffffffffffffffffffffffffff82169050919050565b600061129e82611273565b9050919050565b6112ae81611293565b81146112b957600080fd5b50565b6000813590506112cb816112a5565b92915050565b6000819050919050565b6112e4816112d1565b81146112ef57600080fd5b50565b600081359050611301816112db565b92915050565b6000806040838503121561131e5761131d611269565b5b600061132c858286016112bc565b925050602061133d858286016112f2565b9150509250929050565b600081519050919050565b600082825260208201905092915050565b60005b83811015611381578082015181840152602081019050611366565b83811115611390576000848401525b50505050565b6000601f19601f8301169050919050565b60006113b282611347565b6113bc8185611352565b93506113cc818560208601611363565b6113d581611396565b840191505092915050565b600060208201905081810360008301526113fa81846113a7565b905092915050565b600080fd5b600080fd5b7f4e487b7100000000000000000000000000000000000000000000000000000000600052604160045260246000fd5b61144482611396565b810181811067ffffffffffffffff821117156114635761146261140c565b5b80604052505050565b600061147661125f565b9050611482828261143b565b919050565b600067ffffffffffffffff8211156114a2576114a161140c565b5b6114ab82611396565b9050602081019050919050565b82818337600083830152505050565b60006114da6114d584611487565b61146c565b9050828152602081018484840111156114f6576114f5611407565b5b6115018482856114b8565b509392505050565b600082601f83011261151e5761151d611402565b5b813561152e8482602086016114c7565b91505092915050565b6000806000606084860312156115505761154f611269565b5b600084013567ffffffffffffffff81111561156e5761156d61126e565b5b61157a86828701611509565b935050602084013567ffffffffffffffff81111561159b5761159a61126e565b5b6115a786828701611509565b92505060406115b8868287016112bc565b9150509250925092565b600080604083850312156115d9576115d8611269565b5b60006115e7858286016112bc565b92505060206115f8858286016112bc565b9150509250929050565b6000806040838503121561161957611618611269565b5b6000611627858286016112bc565b925050602083013567ffffffffffffffff8111156116485761164761126e565b5b61165485828601611509565b9150509250929050565b60006020828403121561167457611673611269565b5b6000611682848285016112bc565b91505092915050565b600081519050919050565b600082825260208201905092915050565b6000819050602082019050919050565b600082825260208201905092915050565b60006116d382611347565b6116dd81856116b7565b93506116ed818560208601611363565b6116f681611396565b840191505092915050565b600061170d83836116c8565b905092915050565b6000602082019050919050565b600061172d8261168b565b6117378185611696565b935083602082028501611749856116a7565b8060005b8581101561178557848403895281516117668582611701565b945061177183611715565b925060208a0199505060018101905061174d565b50829750879550505050505092915050565b600060208201905081810360008301526117b18184611722565b905092915050565b6000602082840312156117cf576117ce611269565b5b600082013567ffffffffffffffff8111156117ed576117ec61126e565b5b6117f984828501611509565b91505092915050565b7f4e487b7100000000000000000000000000000000000000000000000000000000600052602260045260246000fd5b6000600282049050600182168061184957607f821691505b60208210810361185c5761185b611802565b5b50919050565b600081905092915050565b600061187882611347565b6118828185611862565b9350611892818560208601611363565b80840191505092915050565b60006118aa828461186d565b915081905092915050565b7f5468697320444e20697320616c72656164792074616b656e2e00000000000000600082015250565b60006118eb601983611352565b91506118f6826118b5565b602082019050919050565b6000602082019050818103600083015261191a816118de565b9050919050565b7f596f7520617265206e6f7420616c6c6f77656420746f2073746f7265206e657760008201527f20646f6d61696e206e616d6520667265656c792e000000000000000000000000602082015250565b600061197d603483611352565b915061198882611921565b604082019050919050565b600060208201905081810360008301526119ac81611970565b9050919050565b7f43616e277420757064617465206f776e6572203a206f6e6c792074686520646f60008201527f6d61696e206e616d6573206f776e65722063616e20646f2074686973206f706560208201527f726174696f6e2e00000000000000000000000000000000000000000000000000604082015250565b6000611a35604783611352565b9150611a40826119b3565b606082019050919050565b60006020820190508181036000830152611a6481611a28565b9050919050565b7f43616e277420757064617465204950203a207468697320646f6d61696e206e6160008201527f6d6520646f6573206e6f742065786973742e0000000000000000000000000000602082015250565b6000611ac7603283611352565b9150611ad282611a6b565b604082019050919050565b60006020820190508181036000830152611af681611aba565b9050919050565b7f43616e2774207570646174652049502061646472657373203a206f6e6c79207460008201527f686520646f6d61696e206e616d6573206f776e65722063616e20646f2074686960208201527f73206f7065726174696f6e2e0000000000000000000000000000000000000000604082015250565b6000611b7f604c83611352565b9150611b8a82611afd565b606082019050919050565b60006020820190508181036000830152611bae81611b72565b9050919050565b7f43616e27742064656c65746520444e203a206f6e6c792074686520646f6d616960008201527f6e206e616d6573206f776e65722063616e20646f2074686973206f706572617460208201527f696f6e2e00000000000000000000000000000000000000000000000000000000604082015250565b6000611c37604483611352565b9150611c4282611bb5565b606082019050919050565b60006020820190508181036000830152611c6681611c2a565b9050919050565b7f4e487b7100000000000000000000000000000000000000000000000000000000600052603260045260246000fd5b7f4e487b7100000000000000000000000000000000000000000000000000000000600052601160045260246000fd5b6000611cd6826112d1565b91507fffffffffffffffffffffffffffffffffffffffffffffffffffffffffffffffff8203611d0857611d07611c9c565b5b600182019050919050565b7f54686973206164647265737320646f6573206e6f742065786973742e00000000600082015250565b6000611d49601c83611352565b9150611d5482611d13565b602082019050919050565b60006020820190508181036000830152611d7881611d3c565b9050919050565b7f5468697320444e20646f6573206e6f742065786973742e000000000000000000600082015250565b6000611db5601783611352565b9150611dc082611d7f565b602082019050919050565b60006020820190508181036000830152611de481611da8565b9050919050565b6000611df6826112d1565b9150611e01836112d1565b925082821015611e1457611e13611c9c565b5b828203905092915050565b6000611e2a826112d1565b9150611e35836112d1565b9250827fffffffffffffffffffffffffffffffffffffffffffffffffffffffffffffffff03821115611e6a57611e69611c9c565b5b828201905092915050565b7f4e487b7100000000000000000000000000000000000000000000000000000000600052603160045260246000fdfea2646970667358221220afac28292d5710a65d7dbc4b8ab42351eb55676aacc98b9e01e01659f18a266864736f6c634300080e0033",
  "immutableReferences": {},
  "source": "// SPDX-License-Identifier: GPL-3.0\npragma solidity 0.8.14;\n\n\ncontract DnsOnBlock{\n\n    mapping(address => string[]) public property; // addr => dn[]\n    mapping(string => string) public dns_record; // dn => ip\n\n    constructor(){\n        string[] memory tab_dn = new string[](3);\n        string[] memory tab_ip = new string[](3);\n\n        tab_dn[0] = \"default1.pfe\";\n        tab_dn[1] = \"default2.pfe\";\n        tab_dn[2] = \"default3.pfe\";\n\n        tab_ip[0] = \"172.172.172.1\";\n        tab_ip[1] = \"172.172.172.2\";\n        tab_ip[2] = \"172.172.172.3\";\n        \n        dns_record[tab_dn[0]] = tab_ip[0];\n        dns_record[tab_dn[1]] = tab_ip[1];\n        dns_record[tab_dn[2]] = tab_ip[2];\n\n        address add = 0xc96502936C79Ff1d61E00a8CBbD0352D732a31a7;\n        property[add] = tab_dn;              \n    }\n\n    // Return IP from DN\n    function get_ip(string memory _dn) public view returns(string memory){\n        // If the domain name is stored, returns the associated ipv4. \n        // Otherwise, the transactions is not being processed (\"require\")\n        require(!compare(dns_record[_dn], \"\"), \"This DN does not exist.\");\n        // Returns the associated ipv4\n        return dns_record[_dn];\n    }\n\n    // Return all the domain names of a user\n    function get_records(address _addr) public view returns(string[] memory){\n        require(property[_addr].length != 0, \"This address does not exist.\");\n        return(property[_addr]);\n    }\n\n    // Set a new dns record\n    function set_record(string memory _ipv4, string memory _dn, address _addr) public {\n        // Domain name has to be free\n        require(compare(dns_record[_dn], \"\") , \"This DN is already taken.\");\n        // Only the Dns On Blockchain service is able to store new domain name\n        require(msg.sender == 0xc96502936C79Ff1d61E00a8CBbD0352D732a31a7, \"You are not allowed to store new domain name freely.\");\n        // We store the domain name\n        dns_record[_dn] = _ipv4;\n        property[_addr].push(_dn);\n    }\n\n    // Update ip address of an existing dn\n    function update_ip(string memory _dn, string memory _newip, address _owner) public {\n        require(!compare(dns_record[_dn], \"\"), \"Can't update IP : this domain name does not exist.\");\n        // Only the owner can change the ip of his domain name\n        require(msg.sender == _owner, \"Can't update IP address : only the domain names owner can do this operation.\");\n        dns_record[_dn] = _newip;\n    }\n\n    // Update the owner of domain names\n    function update_owner(address _owner, address _newowner) public {\n        require(msg.sender == _owner, \"Can't update owner : only the domain names owner can do this operation.\");\n        property[_newowner] = property[_owner];\n        delete property[_owner];        \n    }\n\n    function delete_dn(address _owner, string memory _dn) public {\n        require(msg.sender == _owner, \"Can't delete DN : only the domain names owner can do this operation.\");\n        uint i = 0;\n        bool b = true;\n        while(i < property[_owner].length && b){\n            if(compare(property[_owner][i], _dn)){\n                remove_el(property[_owner], _dn);\n                b = false;\n            }\n            i++;\n        }\n        delete dns_record[_dn];\n    }    \n\n    //----------------------------- UTILS -----------------------------//\n\n    // Return \"these strings are the same\"\n    function compare(string memory s1, string memory s2) internal pure returns (bool) {\n        return keccak256(abi.encodePacked(s1)) == keccak256(abi.encodePacked(s2));\n    }\n\n    // Remove the string element from an array\n    function remove_el(string[] storage array , string memory el) internal {\n        bool found = false;\n        for(uint i = 0 ; i < array.length-1 ; i++){\n            // As soon as we find the element to remove\n            found = found || compare(array[i], el);\n            if(found){\n                array[i] = array[i+1];\n            }            \n        }\n        array.pop();\n    }\n}",
  "sourcePath": "/home/kalimero/SC/contracts/DnsOnBlock.sol",
  "compiler": {
    "name": "solc",
    "version": "0.8.14+commit.80d49f37.Emscripten.clang"
  },
  "schemaVersion": "3.4.7",
  "updatedAt": "2022-06-03T14:47:36.054Z",
  "networkType": "ethereum",
  "devdoc": {
    "kind": "dev",
    "methods": {},
    "version": 1
  },
  "userdoc": {
    "kind": "user",
    "methods": {},
    "version": 1
  }
}